{
  "contractName": "Bc1TokenSale",
  "abi": [
    {
      "inputs": [
        {
          "internalType": "contract Bc1Token",
          "name": "_tokenContract",
          "type": "address"
        },
        {
          "internalType": "uint256",
          "name": "_tokenPrice",
          "type": "uint256"
        }
      ],
      "payable": false,
      "stateMutability": "nonpayable",
      "type": "constructor"
    },
    {
      "anonymous": false,
      "inputs": [
        {
          "indexed": false,
          "internalType": "address",
          "name": "_buyer",
          "type": "address"
        },
        {
          "indexed": false,
          "internalType": "uint256",
          "name": "_amount",
          "type": "uint256"
        }
      ],
      "name": "Sell",
      "type": "event"
    },
    {
      "constant": true,
      "inputs": [],
      "name": "tokenContract",
      "outputs": [
        {
          "internalType": "contract Bc1Token",
          "name": "",
          "type": "address"
        }
      ],
      "payable": false,
      "stateMutability": "view",
      "type": "function"
    },
    {
      "constant": true,
      "inputs": [],
      "name": "tokenPrice",
      "outputs": [
        {
          "internalType": "uint256",
          "name": "",
          "type": "uint256"
        }
      ],
      "payable": false,
      "stateMutability": "view",
      "type": "function"
    },
    {
      "constant": true,
      "inputs": [],
      "name": "tokenSold",
      "outputs": [
        {
          "internalType": "uint256",
          "name": "",
          "type": "uint256"
        }
      ],
      "payable": false,
      "stateMutability": "view",
      "type": "function"
    },
    {
      "constant": false,
      "inputs": [
        {
          "internalType": "uint256",
          "name": "_numberOfTokens",
          "type": "uint256"
        }
      ],
      "name": "buyTokens",
      "outputs": [],
      "payable": true,
      "stateMutability": "payable",
      "type": "function"
    },
    {
      "constant": false,
      "inputs": [],
      "name": "endSale",
      "outputs": [],
      "payable": false,
      "stateMutability": "nonpayable",
      "type": "function"
    }
  ],
  "bytecode": "0x608060405234801561001057600080fd5b5060405161079d38038061079d8339818101604052604081101561003357600080fd5b810190808051906020019092919080519060200190929190505050336000806101000a81548173ffffffffffffffffffffffffffffffffffffffff021916908373ffffffffffffffffffffffffffffffffffffffff16021790555081600160006101000a81548173ffffffffffffffffffffffffffffffffffffffff021916908373ffffffffffffffffffffffffffffffffffffffff1602179055508060028190555050506106b6806100e76000396000f3fe60806040526004361061004a5760003560e01c80633610724e1461004f578063380d831b1461007d578063519ee19e1461009457806355a373d6146100bf5780637ff9b59614610116575b600080fd5b61007b6004803603602081101561006557600080fd5b8101908080359060200190929190505050610141565b005b34801561008957600080fd5b506100926103a9565b005b3480156100a057600080fd5b506100a9610623565b6040518082815260200191505060405180910390f35b3480156100cb57600080fd5b506100d4610629565b604051808273ffffffffffffffffffffffffffffffffffffffff1673ffffffffffffffffffffffffffffffffffffffff16815260200191505060405180910390f35b34801561012257600080fd5b5061012b61064f565b6040518082815260200191505060405180910390f35b61014d81600254610655565b341461015857600080fd5b80600160009054906101000a900473ffffffffffffffffffffffffffffffffffffffff1673ffffffffffffffffffffffffffffffffffffffff166370a08231306040518263ffffffff1660e01b8152600401808273ffffffffffffffffffffffffffffffffffffffff1673ffffffffffffffffffffffffffffffffffffffff16815260200191505060206040518083038186803b1580156101f857600080fd5b505afa15801561020c573d6000803e3d6000fd5b505050506040513d602081101561022257600080fd5b8101908080519060200190929190505050101561023e57600080fd5b600160009054906101000a900473ffffffffffffffffffffffffffffffffffffffff1673ffffffffffffffffffffffffffffffffffffffff1663a9059cbb33836040518363ffffffff1660e01b8152600401808373ffffffffffffffffffffffffffffffffffffffff1673ffffffffffffffffffffffffffffffffffffffff16815260200182815260200192505050602060405180830381600087803b1580156102e757600080fd5b505af11580156102fb573d6000803e3d6000fd5b505050506040513d602081101561031157600080fd5b810190808051906020019092919050505061032b57600080fd5b806003600082825401925050819055507f5e5e995ce3133561afceaa51a9a154d5db228cd7525d34df5185582c18d3df093382604051808373ffffffffffffffffffffffffffffffffffffffff1673ffffffffffffffffffffffffffffffffffffffff1681526020018281526020019250505060405180910390a150565b6000809054906101000a900473ffffffffffffffffffffffffffffffffffffffff1673ffffffffffffffffffffffffffffffffffffffff163373ffffffffffffffffffffffffffffffffffffffff161461040257600080fd5b600160009054906101000a900473ffffffffffffffffffffffffffffffffffffffff1673ffffffffffffffffffffffffffffffffffffffff1663a9059cbb6000809054906101000a900473ffffffffffffffffffffffffffffffffffffffff16600160009054906101000a900473ffffffffffffffffffffffffffffffffffffffff1673ffffffffffffffffffffffffffffffffffffffff166370a08231306040518263ffffffff1660e01b8152600401808273ffffffffffffffffffffffffffffffffffffffff1673ffffffffffffffffffffffffffffffffffffffff16815260200191505060206040518083038186803b15801561050157600080fd5b505afa158015610515573d6000803e3d6000fd5b505050506040513d602081101561052b57600080fd5b81019080805190602001909291905050506040518363ffffffff1660e01b8152600401808373ffffffffffffffffffffffffffffffffffffffff1673ffffffffffffffffffffffffffffffffffffffff16815260200182815260200192505050602060405180830381600087803b1580156105a557600080fd5b505af11580156105b9573d6000803e3d6000fd5b505050506040513d60208110156105cf57600080fd5b81019080805190602001909291905050506105e957600080fd5b6000809054906101000a900473ffffffffffffffffffffffffffffffffffffffff1673ffffffffffffffffffffffffffffffffffffffff16ff5b60035481565b600160009054906101000a900473ffffffffffffffffffffffffffffffffffffffff1681565b60025481565b600080821480610672575082828385029250828161066f57fe5b04145b61067b57600080fd5b9291505056fea265627a7a72315820d9eafe16ef8ceb0949023067598d1f105a86646892d439e758ff16e6b86da61964736f6c63430005100032",
  "source": "pragma solidity  >=0.5.16 <0.9.0;\n\nimport \"./Bc1Token.sol\";\n\ncontract Bc1TokenSale{\n    // Instancia o contrato admin\n    address admin;\n    // Instancia uma variavel do tipo Bc1Token pra se referir ao tokenContract a partir do Bc1TokenSale.\n    Bc1Token public tokenContract;\n    // Instancia uma variavel do tipo uint pra se referir ao valor do token.\n    uint public tokenPrice;\n    // Instancia uma variavel do tipo uint pra se referir a quantidade de tokens vendidos.\n    uint public tokenSold;\n\n    // Cria o evento q constata a venda;\n    event Sell(address _buyer, uint _amount);\n    \n    // Construtor da loja de tokens\n    constructor(Bc1Token _tokenContract,uint _tokenPrice) public{\n        // Atribui a tag admin ao endereço de quem chamou o contrato \n        admin = msg.sender;\n        // Atribui o endereço do token a variavel tokenContract\n        tokenContract = _tokenContract;\n        // atribui o preço do token a variavel tokenPrice (em wei)\n        tokenPrice = _tokenPrice;\n    }\n    // Função para multiplicar dois interios de forma que não ocorra falhas\n    function multiply(uint x, uint y) internal pure returns (uint z){\n        require(y==0 || (z = x * y) / y == x);\n    }\n\n    // Função que compra os tokens disponiveis no SC da loja\n    function buyTokens(uint _numberOfTokens) public payable{\n        // Requer que o valor enviado em wei seja igual ao custo total de transação em wei\n        require(msg.value == multiply(_numberOfTokens, tokenPrice));\n        // Requer que a loja tenha fundos suficientes pra vender/\n        require(tokenContract.balanceOf(address(this)) >= _numberOfTokens);\n        // Transfere o que foi vendido\n        require(tokenContract.transfer(msg.sender, _numberOfTokens));\n        // incrementa a quantidade de tokens vendidos\n        tokenSold += _numberOfTokens;\n        // Emite o evento de venda;\n        emit Sell(msg.sender, _numberOfTokens);\n    }\n\n    //Finalizar a venda de tokens;\n    function endSale() public{\n        //Requer que quem chame essa função seja unicamente o admin;\n        require(msg.sender == admin);\n        //Transferir os tokens restantes, que nao foram vendidos, pro adm;\n        require(tokenContract.transfer(admin, tokenContract.balanceOf(address(this))));\n        //destruir contrato e encerra de fato a venda;\n        selfdestruct(address(uint160(admin)));\n    }\n}",
  "sourcePath": "/home/alan/Documents/estagio/ethereum/curso/curso-apresent/token_sale/contracts/Bc1TokenSale.sol",
  "compiler": {
    "name": "solc",
    "version": "0.5.16+commit.9c3226ce.Emscripten.clang"
  },
  "schemaVersion": "3.4.1",
  "updatedAt": "2021-07-19T13:24:02.353Z",
  "networkType": "ethereum",
  "devdoc": {
    "methods": {}
  },
  "userdoc": {
    "methods": {}
  }
}